{
  "_format": "hh-sol-artifact-1",
  "contractName": "BettingApp",
  "sourceName": "contracts/Betting.sol",
  "abi": [
    {
      "inputs": [],
      "stateMutability": "nonpayable",
      "type": "constructor"
    },
    {
      "anonymous": false,
      "inputs": [
        {
          "indexed": true,
          "internalType": "uint256",
          "name": "betIndex",
          "type": "uint256"
        },
        {
          "indexed": true,
          "internalType": "address",
          "name": "player",
          "type": "address"
        },
        {
          "indexed": false,
          "internalType": "uint256",
          "name": "amount",
          "type": "uint256"
        }
      ],
      "name": "BetPlaced",
      "type": "event"
    },
    {
      "anonymous": false,
      "inputs": [
        {
          "indexed": true,
          "internalType": "uint256",
          "name": "betIndex",
          "type": "uint256"
        },
        {
          "indexed": true,
          "internalType": "address",
          "name": "player",
          "type": "address"
        },
        {
          "indexed": false,
          "internalType": "uint256",
          "name": "amount",
          "type": "uint256"
        },
        {
          "indexed": false,
          "internalType": "bool",
          "name": "isCheckedOut",
          "type": "bool"
        }
      ],
      "name": "BetResolved",
      "type": "event"
    },
    {
      "anonymous": false,
      "inputs": [
        {
          "indexed": true,
          "internalType": "address",
          "name": "player",
          "type": "address"
        },
        {
          "indexed": false,
          "internalType": "uint256",
          "name": "amount",
          "type": "uint256"
        }
      ],
      "name": "FundsDeposited",
      "type": "event"
    },
    {
      "anonymous": false,
      "inputs": [
        {
          "indexed": true,
          "internalType": "address",
          "name": "player",
          "type": "address"
        },
        {
          "indexed": false,
          "internalType": "uint256",
          "name": "amount",
          "type": "uint256"
        }
      ],
      "name": "FundsWithdrawn",
      "type": "event"
    },
    {
      "anonymous": false,
      "inputs": [
        {
          "indexed": true,
          "internalType": "address",
          "name": "owner",
          "type": "address"
        },
        {
          "indexed": false,
          "internalType": "uint256",
          "name": "amount",
          "type": "uint256"
        }
      ],
      "name": "PoolWithdrawn",
      "type": "event"
    },
    {
      "inputs": [
        {
          "internalType": "uint256",
          "name": "",
          "type": "uint256"
        }
      ],
      "name": "bets",
      "outputs": [
        {
          "internalType": "address",
          "name": "player",
          "type": "address"
        },
        {
          "internalType": "uint256",
          "name": "amount",
          "type": "uint256"
        },
        {
          "internalType": "bool",
          "name": "isResolved",
          "type": "bool"
        },
        {
          "internalType": "bool",
          "name": "isCheckedOut",
          "type": "bool"
        }
      ],
      "stateMutability": "view",
      "type": "function"
    },
    {
      "inputs": [],
      "name": "deposit",
      "outputs": [],
      "stateMutability": "payable",
      "type": "function"
    },
    {
      "inputs": [
        {
          "internalType": "uint256",
          "name": "betIndex",
          "type": "uint256"
        }
      ],
      "name": "getBet",
      "outputs": [
        {
          "internalType": "address",
          "name": "player",
          "type": "address"
        },
        {
          "internalType": "uint256",
          "name": "amount",
          "type": "uint256"
        },
        {
          "internalType": "bool",
          "name": "isResolved",
          "type": "bool"
        },
        {
          "internalType": "bool",
          "name": "isCheckedOut",
          "type": "bool"
        }
      ],
      "stateMutability": "view",
      "type": "function"
    },
    {
      "inputs": [],
      "name": "getMyBets",
      "outputs": [
        {
          "internalType": "uint256[]",
          "name": "",
          "type": "uint256[]"
        }
      ],
      "stateMutability": "view",
      "type": "function"
    },
    {
      "inputs": [],
      "name": "getMyLatestActiveBet",
      "outputs": [
        {
          "internalType": "uint256",
          "name": "betIndex",
          "type": "uint256"
        },
        {
          "internalType": "uint256",
          "name": "amount",
          "type": "uint256"
        },
        {
          "internalType": "bool",
          "name": "isResolved",
          "type": "bool"
        },
        {
          "internalType": "bool",
          "name": "isCheckedOut",
          "type": "bool"
        }
      ],
      "stateMutability": "view",
      "type": "function"
    },
    {
      "inputs": [],
      "name": "getTotalBets",
      "outputs": [
        {
          "internalType": "uint256",
          "name": "",
          "type": "uint256"
        }
      ],
      "stateMutability": "view",
      "type": "function"
    },
    {
      "inputs": [],
      "name": "owner",
      "outputs": [
        {
          "internalType": "address",
          "name": "",
          "type": "address"
        }
      ],
      "stateMutability": "view",
      "type": "function"
    },
    {
      "inputs": [
        {
          "internalType": "uint256",
          "name": "amount",
          "type": "uint256"
        }
      ],
      "name": "placeBet",
      "outputs": [],
      "stateMutability": "nonpayable",
      "type": "function"
    },
    {
      "inputs": [
        {
          "internalType": "address",
          "name": "",
          "type": "address"
        }
      ],
      "name": "playerBalances",
      "outputs": [
        {
          "internalType": "uint256",
          "name": "",
          "type": "uint256"
        }
      ],
      "stateMutability": "view",
      "type": "function"
    },
    {
      "inputs": [],
      "name": "poolBalance",
      "outputs": [
        {
          "internalType": "uint256",
          "name": "",
          "type": "uint256"
        }
      ],
      "stateMutability": "view",
      "type": "function"
    },
    {
      "inputs": [
        {
          "internalType": "uint256",
          "name": "betIndex",
          "type": "uint256"
        },
        {
          "internalType": "bool",
          "name": "isCheckedOut",
          "type": "bool"
        }
      ],
      "name": "resolveBet",
      "outputs": [],
      "stateMutability": "nonpayable",
      "type": "function"
    },
    {
      "inputs": [
        {
          "internalType": "address",
          "name": "",
          "type": "address"
        },
        {
          "internalType": "uint256",
          "name": "",
          "type": "uint256"
        }
      ],
      "name": "userBets",
      "outputs": [
        {
          "internalType": "uint256",
          "name": "",
          "type": "uint256"
        }
      ],
      "stateMutability": "view",
      "type": "function"
    },
    {
      "inputs": [
        {
          "internalType": "uint256",
          "name": "amount",
          "type": "uint256"
        }
      ],
      "name": "withdraw",
      "outputs": [],
      "stateMutability": "nonpayable",
      "type": "function"
    },
    {
      "inputs": [],
      "name": "withdrawPool",
      "outputs": [],
      "stateMutability": "nonpayable",
      "type": "function"
    }
  ],
  "bytecode": "0x6080604052348015600f57600080fd5b5033600260006101000a81548173ffffffffffffffffffffffffffffffffffffffff021916908373ffffffffffffffffffffffffffffffffffffffff1602179055506119ab806100606000396000f3fe6080604052600436106100dd5760003560e01c80638068aa681161007f57806399535bd71161005957806399535bd7146102c9578063a3cb679d146102f4578063b6e132441461031f578063d0e30db014610348576100dd565b80638068aa68146102365780638da5cb5b1461027357806396365d441461029e576100dd565b806322af00fa116100bb57806322af00fa146101795780632e1a7d4d146101b95780635c42c733146101e25780637b38314c146101f9576100dd565b8063061e494f146100e257806310fe7c481461012257806318d3742a1461014b575b600080fd5b3480156100ee57600080fd5b5061010960048036038101906101049190611121565b610352565b60405161011994939291906111b9565b60405180910390f35b34801561012e57600080fd5b5061014960048036038101906101449190611121565b610423565b005b34801561015757600080fd5b506101606106e7565b60405161017094939291906111fe565b60405180910390f35b34801561018557600080fd5b506101a0600480360381019061019b9190611121565b610888565b6040516101b094939291906111b9565b60405180910390f35b3480156101c557600080fd5b506101e060048036038101906101db9190611121565b610902565b005b3480156101ee57600080fd5b506101f7610a70565b005b34801561020557600080fd5b50610220600480360381019061021b919061126f565b610beb565b60405161022d919061129c565b60405180910390f35b34801561024257600080fd5b5061025d600480360381019061025891906112b7565b610c03565b60405161026a919061129c565b60405180910390f35b34801561027f57600080fd5b50610288610c34565b60405161029591906112f7565b60405180910390f35b3480156102aa57600080fd5b506102b3610c5a565b6040516102c0919061129c565b60405180910390f35b3480156102d557600080fd5b506102de610c60565b6040516102eb91906113d0565b60405180910390f35b34801561030057600080fd5b50610309610cf5565b604051610316919061129c565b60405180910390f35b34801561032b57600080fd5b506103466004803603810190610341919061141e565b610d02565b005b610350610ffe565b005b600080600080600380549050851061039f576040517f08c379a0000000000000000000000000000000000000000000000000000000008152600401610396906114bb565b60405180910390fd5b6000600386815481106103b5576103b46114db565b5b906000526020600020906003020190508060000160009054906101000a900473ffffffffffffffffffffffffffffffffffffffff1681600101548260020160009054906101000a900460ff168360020160019054906101000a900460ff169450945094509450509193509193565b806000803373ffffffffffffffffffffffffffffffffffffffff1673ffffffffffffffffffffffffffffffffffffffff1681526020019081526020016000205410156104a4576040517f08c379a000000000000000000000000000000000000000000000000000000000815260040161049b90611556565b60405180910390fd5b806000803373ffffffffffffffffffffffffffffffffffffffff1673ffffffffffffffffffffffffffffffffffffffff16815260200190815260200160002060008282546104f291906115a5565b92505081905550806001600082825461050b91906115d9565b92505081905550600360405180608001604052803373ffffffffffffffffffffffffffffffffffffffff16815260200183815260200160001515815260200160001515815250908060018154018082558091505060019003906000526020600020906003020160009091909190915060008201518160000160006101000a81548173ffffffffffffffffffffffffffffffffffffffff021916908373ffffffffffffffffffffffffffffffffffffffff1602179055506020820151816001015560408201518160020160006101000a81548160ff02191690831515021790555060608201518160020160016101000a81548160ff0219169083151502179055505050600460003373ffffffffffffffffffffffffffffffffffffffff1673ffffffffffffffffffffffffffffffffffffffff168152602001908152602001600020600160038054905061065e91906115a5565b90806001815401808255809150506001900390600052602060002001600090919091909150553373ffffffffffffffffffffffffffffffffffffffff1660016003805490506106ad91906115a5565b7f87b9df6fa7123c2e6044c3a3a37b4b0662c188d7a58ef86ee55067c46e4613ad836040516106dc919061129c565b60405180910390a350565b6000806000806000600460003373ffffffffffffffffffffffffffffffffffffffff1673ffffffffffffffffffffffffffffffffffffffff16815260200190815260200160002080548060200260200160405190810160405280929190818152602001828054801561077857602002820191906000526020600020905b815481526020019060010190808311610764575b505050505090506000815190505b60008111156108465760008260018361079f91906115a5565b815181106107b0576107af6114db565b5b602002602001015190506000600382815481106107d0576107cf6114db565b5b906000526020600020906003020190508060020160009054906101000a900460ff16610831578181600101548260020160009054906101000a900460ff168360020160019054906101000a900460ff16975097509750975050505050610882565b5050808061083e9061160d565b915050610786565b506040517f08c379a000000000000000000000000000000000000000000000000000000000815260040161087990611682565b60405180910390fd5b90919293565b6003818154811061089857600080fd5b90600052602060002090600302016000915090508060000160009054906101000a900473ffffffffffffffffffffffffffffffffffffffff16908060010154908060020160009054906101000a900460ff16908060020160019054906101000a900460ff16905084565b806000803373ffffffffffffffffffffffffffffffffffffffff1673ffffffffffffffffffffffffffffffffffffffff168152602001908152602001600020541015610983576040517f08c379a000000000000000000000000000000000000000000000000000000000815260040161097a90611556565b60405180910390fd5b806000803373ffffffffffffffffffffffffffffffffffffffff1673ffffffffffffffffffffffffffffffffffffffff16815260200190815260200160002060008282546109d191906115a5565b925050819055503373ffffffffffffffffffffffffffffffffffffffff166108fc829081150290604051600060405180830381858888f19350505050158015610a1e573d6000803e3d6000fd5b503373ffffffffffffffffffffffffffffffffffffffff167feaff4b37086828766ad3268786972c0cd24259d4c87a80f9d3963a3c3d999b0d82604051610a65919061129c565b60405180910390a250565b600260009054906101000a900473ffffffffffffffffffffffffffffffffffffffff1673ffffffffffffffffffffffffffffffffffffffff163373ffffffffffffffffffffffffffffffffffffffff1614610b00576040517f08c379a0000000000000000000000000000000000000000000000000000000008152600401610af790611714565b60405180910390fd5b600060015490506000600181905550600260009054906101000a900473ffffffffffffffffffffffffffffffffffffffff1673ffffffffffffffffffffffffffffffffffffffff166108fc829081150290604051600060405180830381858888f19350505050158015610b77573d6000803e3d6000fd5b50600260009054906101000a900473ffffffffffffffffffffffffffffffffffffffff1673ffffffffffffffffffffffffffffffffffffffff167f6f07e6169c1653554eb707b6f6cd8f7ccf9cc29e54a0d8a71d9d5867d2057ac282604051610be0919061129c565b60405180910390a250565b60006020528060005260406000206000915090505481565b60046020528160005260406000208181548110610c1f57600080fd5b90600052602060002001600091509150505481565b600260009054906101000a900473ffffffffffffffffffffffffffffffffffffffff1681565b60015481565b6060600460003373ffffffffffffffffffffffffffffffffffffffff1673ffffffffffffffffffffffffffffffffffffffff168152602001908152602001600020805480602002602001604051908101604052809291908181526020018280548015610ceb57602002820191906000526020600020905b815481526020019060010190808311610cd7575b5050505050905090565b6000600380549050905090565b6003805490508210610d49576040517f08c379a0000000000000000000000000000000000000000000000000000000008152600401610d40906114bb565b60405180910390fd5b600060038381548110610d5f57610d5e6114db565b5b906000526020600020906003020190508060020160009054906101000a900460ff1615610dc1576040517f08c379a0000000000000000000000000000000000000000000000000000000008152600401610db890611780565b60405180910390fd5b3373ffffffffffffffffffffffffffffffffffffffff168160000160009054906101000a900473ffffffffffffffffffffffffffffffffffffffff1673ffffffffffffffffffffffffffffffffffffffff1614610e53576040517f08c379a0000000000000000000000000000000000000000000000000000000008152600401610e4a90611812565b60405180910390fd5b60018160020160006101000a81548160ff021916908315150217905550818160020160016101000a81548160ff0219169083151502179055508115610f8057600060028260010154610ea59190611832565b9050806001541015610eec576040517f08c379a0000000000000000000000000000000000000000000000000000000008152600401610ee3906118c0565b60405180910390fd5b8060016000828254610efe91906115a5565b92505081905550806000808460000160009054906101000a900473ffffffffffffffffffffffffffffffffffffffff1673ffffffffffffffffffffffffffffffffffffffff1673ffffffffffffffffffffffffffffffffffffffff1681526020019081526020016000206000828254610f7791906115d9565b92505081905550505b8060000160009054906101000a900473ffffffffffffffffffffffffffffffffffffffff1673ffffffffffffffffffffffffffffffffffffffff16837f094f34398f9a5fb33bbba9d842a9654984effe0466307fd0b94f229568367e0a836001015485604051610ff19291906118e0565b60405180910390a3505050565b60003411611041576040517f08c379a000000000000000000000000000000000000000000000000000000000815260040161103890611955565b60405180910390fd5b346000803373ffffffffffffffffffffffffffffffffffffffff1673ffffffffffffffffffffffffffffffffffffffff168152602001908152602001600020600082825461108f91906115d9565b925050819055503373ffffffffffffffffffffffffffffffffffffffff167f543ba50a5eec5e6178218e364b1d0f396157b3c8fa278522c2cb7fd99407d474346040516110dc919061129c565b60405180910390a2565b600080fd5b6000819050919050565b6110fe816110eb565b811461110957600080fd5b50565b60008135905061111b816110f5565b92915050565b600060208284031215611137576111366110e6565b5b60006111458482850161110c565b91505092915050565b600073ffffffffffffffffffffffffffffffffffffffff82169050919050565b60006111798261114e565b9050919050565b6111898161116e565b82525050565b611198816110eb565b82525050565b60008115159050919050565b6111b38161119e565b82525050565b60006080820190506111ce6000830187611180565b6111db602083018661118f565b6111e860408301856111aa565b6111f560608301846111aa565b95945050505050565b6000608082019050611213600083018761118f565b611220602083018661118f565b61122d60408301856111aa565b61123a60608301846111aa565b95945050505050565b61124c8161116e565b811461125757600080fd5b50565b60008135905061126981611243565b92915050565b600060208284031215611285576112846110e6565b5b60006112938482850161125a565b91505092915050565b60006020820190506112b1600083018461118f565b92915050565b600080604083850312156112ce576112cd6110e6565b5b60006112dc8582860161125a565b92505060206112ed8582860161110c565b9150509250929050565b600060208201905061130c6000830184611180565b92915050565b600081519050919050565b600082825260208201905092915050565b6000819050602082019050919050565b611347816110eb565b82525050565b6000611359838361133e565b60208301905092915050565b6000602082019050919050565b600061137d82611312565b611387818561131d565b93506113928361132e565b8060005b838110156113c35781516113aa888261134d565b97506113b583611365565b925050600181019050611396565b5085935050505092915050565b600060208201905081810360008301526113ea8184611372565b905092915050565b6113fb8161119e565b811461140657600080fd5b50565b600081359050611418816113f2565b92915050565b60008060408385031215611435576114346110e6565b5b60006114438582860161110c565b925050602061145485828601611409565b9150509250929050565b600082825260208201905092915050565b7f496e76616c69642062657420696e646578000000000000000000000000000000600082015250565b60006114a560118361145e565b91506114b08261146f565b602082019050919050565b600060208201905081810360008301526114d481611498565b9050919050565b7f4e487b7100000000000000000000000000000000000000000000000000000000600052603260045260246000fd5b7f496e73756666696369656e742062616c616e6365000000000000000000000000600082015250565b600061154060148361145e565b915061154b8261150a565b602082019050919050565b6000602082019050818103600083015261156f81611533565b9050919050565b7f4e487b7100000000000000000000000000000000000000000000000000000000600052601160045260246000fd5b60006115b0826110eb565b91506115bb836110eb565b92508282039050818111156115d3576115d2611576565b5b92915050565b60006115e4826110eb565b91506115ef836110eb565b925082820190508082111561160757611606611576565b5b92915050565b6000611618826110eb565b91506000820361162b5761162a611576565b5b600182039050919050565b7f4e6f206163746976652062657420666f756e6400000000000000000000000000600082015250565b600061166c60138361145e565b915061167782611636565b602082019050919050565b6000602082019050818103600083015261169b8161165f565b9050919050565b7f4f6e6c79206f776e65722063616e2063616c6c20746869732066756e6374696f60008201527f6e00000000000000000000000000000000000000000000000000000000000000602082015250565b60006116fe60218361145e565b9150611709826116a2565b604082019050919050565b6000602082019050818103600083015261172d816116f1565b9050919050565b7f42657420616c7265616479207265736f6c766564000000000000000000000000600082015250565b600061176a60148361145e565b915061177582611734565b602082019050919050565b600060208201905081810360008301526117998161175d565b9050919050565b7f596f752063616e206f6e6c79207265736f6c766520796f7572206f776e20626560008201527f7473000000000000000000000000000000000000000000000000000000000000602082015250565b60006117fc60228361145e565b9150611807826117a0565b604082019050919050565b6000602082019050818103600083015261182b816117ef565b9050919050565b600061183d826110eb565b9150611848836110eb565b9250828202611856816110eb565b9150828204841483151761186d5761186c611576565b5b5092915050565b7f496e73756666696369656e7420706f6f6c2062616c616e636500000000000000600082015250565b60006118aa60198361145e565b91506118b582611874565b602082019050919050565b600060208201905081810360008301526118d98161189d565b9050919050565b60006040820190506118f5600083018561118f565b61190260208301846111aa565b9392505050565b7f416d6f756e74206d7573742062652067726561746572207468616e2030000000600082015250565b600061193f601d8361145e565b915061194a82611909565b602082019050919050565b6000602082019050818103600083015261196e81611932565b905091905056fea264697066735822122046e9a3bac1cf1e54f79f73299083404372dc489688617edebb4efb38ed27600a64736f6c634300081c0033",
  "linkReferences": {},
  "deployedLinkReferences": {}
}